{
  "contractName": "HashTime",
  "abi": [
    {
      "anonymous": false,
      "inputs": [
        {
          "indexed": true,
          "internalType": "bytes32",
          "name": "contractId",
          "type": "bytes32"
        },
        {
          "indexed": true,
          "internalType": "address",
          "name": "sender",
          "type": "address"
        },
        {
          "indexed": true,
          "internalType": "address",
          "name": "receiver",
          "type": "address"
        },
        {
          "indexed": false,
          "internalType": "address",
          "name": "tokenContract",
          "type": "address"
        },
        {
          "indexed": false,
          "internalType": "uint256",
          "name": "amount",
          "type": "uint256"
        },
        {
          "indexed": false,
          "internalType": "uint256",
          "name": "timelock",
          "type": "uint256"
        }
      ],
      "name": "HTLCERC20New",
      "type": "event"
    },
    {
      "anonymous": false,
      "inputs": [
        {
          "indexed": true,
          "internalType": "bytes32",
          "name": "contractId",
          "type": "bytes32"
        }
      ],
      "name": "HTLCERC20Refund",
      "type": "event"
    },
    {
      "anonymous": false,
      "inputs": [
        {
          "indexed": true,
          "internalType": "bytes32",
          "name": "contractId",
          "type": "bytes32"
        }
      ],
      "name": "HTLCERC20Withdraw",
      "type": "event"
    },
    {
      "inputs": [
        {
          "internalType": "address",
          "name": "_receiver",
          "type": "address"
        },
        {
          "internalType": "bytes32",
          "name": "_hashlock",
          "type": "bytes32"
        },
        {
          "internalType": "uint256",
          "name": "_timelock",
          "type": "uint256"
        },
        {
          "internalType": "address",
          "name": "_tokenContract",
          "type": "address"
        },
        {
          "internalType": "uint256",
          "name": "_amount",
          "type": "uint256"
        }
      ],
      "name": "newContract",
      "outputs": [
        {
          "internalType": "bytes32",
          "name": "contractId",
          "type": "bytes32"
        }
      ],
      "stateMutability": "nonpayable",
      "type": "function"
    },
    {
      "inputs": [
        {
          "internalType": "bytes32",
          "name": "_contractId",
          "type": "bytes32"
        },
        {
          "internalType": "bytes32",
          "name": "_preimage",
          "type": "bytes32"
        },
        {
          "internalType": "string",
          "name": "_firma",
          "type": "string"
        }
      ],
      "name": "withdraw",
      "outputs": [
        {
          "internalType": "bool",
          "name": "",
          "type": "bool"
        }
      ],
      "stateMutability": "nonpayable",
      "type": "function"
    },
    {
      "inputs": [
        {
          "internalType": "bytes32",
          "name": "_contractId",
          "type": "bytes32"
        }
      ],
      "name": "refund",
      "outputs": [
        {
          "internalType": "bool",
          "name": "",
          "type": "bool"
        }
      ],
      "stateMutability": "nonpayable",
      "type": "function"
    },
    {
      "inputs": [
        {
          "internalType": "bytes32",
          "name": "_contractId",
          "type": "bytes32"
        }
      ],
      "name": "getContract",
      "outputs": [
        {
          "internalType": "address",
          "name": "sender",
          "type": "address"
        },
        {
          "internalType": "address",
          "name": "receiver",
          "type": "address"
        },
        {
          "internalType": "address",
          "name": "tokenContract",
          "type": "address"
        },
        {
          "internalType": "uint256",
          "name": "amount",
          "type": "uint256"
        },
        {
          "internalType": "bytes32",
          "name": "hashlock",
          "type": "bytes32"
        },
        {
          "internalType": "uint256",
          "name": "timelock",
          "type": "uint256"
        },
        {
          "internalType": "bool",
          "name": "withdrawn",
          "type": "bool"
        },
        {
          "internalType": "bool",
          "name": "refunded",
          "type": "bool"
        },
        {
          "internalType": "bytes32",
          "name": "preimage",
          "type": "bytes32"
        }
      ],
      "stateMutability": "view",
      "type": "function",
      "constant": true
    },
    {
      "inputs": [
        {
          "internalType": "string",
          "name": "_input",
          "type": "string"
        }
      ],
      "name": "calcular",
      "outputs": [
        {
          "internalType": "bytes32",
          "name": "",
          "type": "bytes32"
        }
      ],
      "stateMutability": "pure",
      "type": "function",
      "constant": true
    },
    {
      "inputs": [
        {
          "internalType": "bytes32",
          "name": "_contractId",
          "type": "bytes32"
        },
        {
          "internalType": "string",
          "name": "_x",
          "type": "string"
        }
      ],
      "name": "checkHash",
      "outputs": [],
      "stateMutability": "view",
      "type": "function",
      "constant": true
    }
  ],
  "bytecode": "0x608060405234801561001057600080fd5b50611eda806100206000396000f3fe608060405234801561001057600080fd5b50600436106100625760003560e01c8063398a7a981461006757806354216f10146100975780637249fbb6146100c75780637309ed36146100f7578063e16c7d9814610127578063e180c8501461015f575b600080fd5b610081600480360381019061007c91906110ee565b61017b565b60405161008e91906117c9565b60405180910390f35b6100b160048036038101906100ac91906111e0565b6106ba565b6040516100be91906117ae565b60405180910390f35b6100e160048036038101906100dc919061118e565b610a2f565b6040516100ee91906117ae565b60405180910390f35b610111600480360381019061010c919061129b565b610d8e565b60405161011e91906117c9565b60405180910390f35b610141600480360381019061013c919061118e565b610e06565b6040516101569998979695949392919061168a565b60405180910390f35b61017960048036038101906101749190611247565b610f37565b005b6000823383600081116101c3576040517f08c379a00000000000000000000000000000000000000000000000000000000081526004016101ba90611986565b60405180910390fd5b808373ffffffffffffffffffffffffffffffffffffffff1663dd62ed3e84306040518363ffffffff1660e01b81526004016101ff929190611661565b60206040518083038186803b15801561021757600080fd5b505afa15801561022b573d6000803e3d6000fd5b505050506040513d601f19601f8201168201806040525081019061024f91906112dc565b1015610290576040517f08c379a000000000000000000000000000000000000000000000000000000000815260040161028790611906565b60405180910390fd5b864281116102d3576040517f08c379a00000000000000000000000000000000000000000000000000000000081526004016102ca90611806565b60405180910390fd5b6002338b89898d8d6040516020016102f0969594939291906115da565b60405160208183030381529060405260405161030c919061164a565b602060405180830381855afa158015610329573d6000803e3d6000fd5b5050506040513d601f19601f8201168201806040525081019061034c91906111b7565b945061035785610f9a565b15610397576040517f08c379a000000000000000000000000000000000000000000000000000000000815260040161038e90611886565b60405180910390fd5b8673ffffffffffffffffffffffffffffffffffffffff166323b872dd3330896040518463ffffffff1660e01b81526004016103d493929190611717565b602060405180830381600087803b1580156103ee57600080fd5b505af1158015610402573d6000803e3d6000fd5b505050506040513d601f19601f820116820180604052508101906104269190611165565b610465576040517f08c379a000000000000000000000000000000000000000000000000000000000815260040161045c906118c6565b60405180910390fd5b6040518061012001604052803373ffffffffffffffffffffffffffffffffffffffff1681526020018b73ffffffffffffffffffffffffffffffffffffffff1681526020018873ffffffffffffffffffffffffffffffffffffffff1681526020018781526020018a81526020018981526020016000151581526020016000151581526020016000801b81525060008087815260200190815260200160002060008201518160000160006101000a81548173ffffffffffffffffffffffffffffffffffffffff021916908373ffffffffffffffffffffffffffffffffffffffff16021790555060208201518160010160006101000a81548173ffffffffffffffffffffffffffffffffffffffff021916908373ffffffffffffffffffffffffffffffffffffffff16021790555060408201518160020160006101000a81548173ffffffffffffffffffffffffffffffffffffffff021916908373ffffffffffffffffffffffffffffffffffffffff160217905550606082015181600301556080820151816004015560a0820151816005015560c08201518160060160006101000a81548160ff02191690831515021790555060e08201518160060160016101000a81548160ff02191690831515021790555061010082015181600701559050508973ffffffffffffffffffffffffffffffffffffffff163373ffffffffffffffffffffffffffffffffffffffff16867fc3890027c293c9637b3b50169e7df14ccb82bfaf1a65062c93c208f8e5aba36c8a8a8d6040516106a593929190611777565b60405180910390a45050505095945050505050565b6000836106c681610f9a565b610705576040517f08c379a00000000000000000000000000000000000000000000000000000000081526004016106fc90611846565b60405180910390fd5b848361071081610d8e565b6000808481526020019081526020016000206004015414610766576040517f08c379a000000000000000000000000000000000000000000000000000000000815260040161075d906119a6565b60405180910390fd5b863373ffffffffffffffffffffffffffffffffffffffff1660008083815260200190815260200160002060010160009054906101000a900473ffffffffffffffffffffffffffffffffffffffff1673ffffffffffffffffffffffffffffffffffffffff161461080a576040517f08c379a000000000000000000000000000000000000000000000000000000000815260040161080190611826565b60405180910390fd5b6000151560008083815260200190815260200160002060060160009054906101000a900460ff16151514610873576040517f08c379a000000000000000000000000000000000000000000000000000000000815260040161086a90611926565b60405180910390fd5b6000151560008083815260200190815260200160002060060160019054906101000a900460ff161515146108dc576040517f08c379a00000000000000000000000000000000000000000000000000000000081526004016108d390611946565b60405180910390fd5b60008060008a8152602001908152602001600020905087816007018190555060018160060160006101000a81548160ff0219169083151502179055508060020160009054906101000a900473ffffffffffffffffffffffffffffffffffffffff1673ffffffffffffffffffffffffffffffffffffffff1663a9059cbb8260010160009054906101000a900473ffffffffffffffffffffffffffffffffffffffff1683600301546040518363ffffffff1660e01b815260040161099f92919061174e565b602060405180830381600087803b1580156109b957600080fd5b505af11580156109cd573d6000803e3d6000fd5b505050506040513d601f19601f820116820180604052508101906109f19190611165565b50887f15a71365fee30a355046c80d10aab98a49c3558b2272658d6c551733203e9bbe60405160405180910390a26001955050505050509392505050565b600081610a3b81610f9a565b610a7a576040517f08c379a0000000000000000000000000000000000000000000000000000000008152600401610a7190611846565b60405180910390fd5b823373ffffffffffffffffffffffffffffffffffffffff1660008083815260200190815260200160002060000160009054906101000a900473ffffffffffffffffffffffffffffffffffffffff1673ffffffffffffffffffffffffffffffffffffffff1614610b1e576040517f08c379a0000000000000000000000000000000000000000000000000000000008152600401610b1590611966565b60405180910390fd5b6000151560008083815260200190815260200160002060060160019054906101000a900460ff16151514610b87576040517f08c379a0000000000000000000000000000000000000000000000000000000008152600401610b7e906118e6565b60405180910390fd5b6000151560008083815260200190815260200160002060060160009054906101000a900460ff16151514610bf0576040517f08c379a0000000000000000000000000000000000000000000000000000000008152600401610be790611866565b60405180910390fd5b42600080838152602001908152602001600020600501541115610c48576040517f08c379a0000000000000000000000000000000000000000000000000000000008152600401610c3f906118a6565b60405180910390fd5b6000806000868152602001908152602001600020905060018160060160016101000a81548160ff0219169083151502179055508060020160009054906101000a900473ffffffffffffffffffffffffffffffffffffffff1673ffffffffffffffffffffffffffffffffffffffff1663a9059cbb8260000160009054906101000a900473ffffffffffffffffffffffffffffffffffffffff1683600301546040518363ffffffff1660e01b8152600401610d0292919061174e565b602060405180830381600087803b158015610d1c57600080fd5b505af1158015610d30573d6000803e3d6000fd5b505050506040513d601f19601f82011682018060405250810190610d549190611165565b50847ff97bb6718c3bf29e51d27c00a46276abc2cf35c7f1d5a1c71bec2c82421bb83060405160405180910390a260019350505050919050565b6000600282604051602001610da391906117e4565b604051602081830303815290604052604051610dbf919061164a565b602060405180830381855afa158015610ddc573d6000803e3d6000fd5b5050506040513d601f19601f82011682018060405250810190610dff91906111b7565b9050919050565b6000806000806000806000806000801515610e208b610f9a565b15151415610e595760008060008060008060008060008460001b94508060001b9050985098509850985098509850985098509850610f2a565b60008060008c815260200190815260200160002090508060000160009054906101000a900473ffffffffffffffffffffffffffffffffffffffff168160010160009054906101000a900473ffffffffffffffffffffffffffffffffffffffff168260020160009054906101000a900473ffffffffffffffffffffffffffffffffffffffff168360030154846004015485600501548660060160009054906101000a900460ff168760060160019054906101000a900460ff168860070154995099509950995099509950995099509950505b9193959799909294969850565b610f4081610d8e565b6000808481526020019081526020016000206004015414610f96576040517f08c379a0000000000000000000000000000000000000000000000000000000008152600401610f8d906119a6565b60405180910390fd5b5050565b60008073ffffffffffffffffffffffffffffffffffffffff1660008084815260200190815260200160002060000160009054906101000a900473ffffffffffffffffffffffffffffffffffffffff1673ffffffffffffffffffffffffffffffffffffffff1614159050919050565b600061101b611016846119eb565b6119c6565b90508281526020810184848401111561103357600080fd5b61103e848285611aa0565b509392505050565b60008135905061105581611e48565b92915050565b60008151905061106a81611e5f565b92915050565b60008135905061107f81611e76565b92915050565b60008151905061109481611e76565b92915050565b600082601f8301126110ab57600080fd5b81356110bb848260208601611008565b91505092915050565b6000813590506110d381611e8d565b92915050565b6000815190506110e881611e8d565b92915050565b600080600080600060a0868803121561110657600080fd5b600061111488828901611046565b955050602061112588828901611070565b9450506040611136888289016110c4565b935050606061114788828901611046565b9250506080611158888289016110c4565b9150509295509295909350565b60006020828403121561117757600080fd5b60006111858482850161105b565b91505092915050565b6000602082840312156111a057600080fd5b60006111ae84828501611070565b91505092915050565b6000602082840312156111c957600080fd5b60006111d784828501611085565b91505092915050565b6000806000606084860312156111f557600080fd5b600061120386828701611070565b935050602061121486828701611070565b925050604084013567ffffffffffffffff81111561123157600080fd5b61123d8682870161109a565b9150509250925092565b6000806040838503121561125a57600080fd5b600061126885828601611070565b925050602083013567ffffffffffffffff81111561128557600080fd5b6112918582860161109a565b9150509250929050565b6000602082840312156112ad57600080fd5b600082013567ffffffffffffffff8111156112c757600080fd5b6112d38482850161109a565b91505092915050565b6000602082840312156112ee57600080fd5b60006112fc848285016110d9565b91505092915050565b61130e81611a4e565b82525050565b61132561132082611a4e565b611b13565b82525050565b61133481611a60565b82525050565b61134381611a6c565b82525050565b61135a61135582611a6c565b611b25565b82525050565b600061136b82611a1c565b6113758185611a32565b9350611385818560208601611aaf565b80840191505092915050565b600061139c82611a27565b6113a68185611a3d565b93506113b6818560208601611aaf565b6113bf81611b7a565b840191505092915050565b60006113d7602383611a3d565b91506113e282611b98565b604082019050919050565b60006113fa601a83611a3d565b915061140582611be7565b602082019050919050565b600061141d601983611a3d565b915061142882611c10565b602082019050919050565b6000611440601d83611a3d565b915061144b82611c39565b602082019050919050565b6000611463601783611a3d565b915061146e82611c62565b602082019050919050565b6000611486602383611a3d565b915061149182611c8b565b604082019050919050565b60006114a9601983611a3d565b91506114b482611cda565b602082019050919050565b60006114cc601c83611a3d565b91506114d782611d03565b602082019050919050565b60006114ef602183611a3d565b91506114fa82611d2c565b604082019050919050565b6000611512601f83611a3d565b915061151d82611d7b565b602082019050919050565b6000611535601e83611a3d565b915061154082611da4565b602082019050919050565b6000611558601683611a3d565b915061156382611dcd565b602082019050919050565b600061157b601883611a3d565b915061158682611df6565b602082019050919050565b600061159e601c83611a3d565b91506115a982611e1f565b602082019050919050565b6115bd81611a96565b82525050565b6115d46115cf82611a96565b611b41565b82525050565b60006115e68289611314565b6014820191506115f68288611314565b6014820191506116068287611314565b60148201915061161682866115c3565b6020820191506116268285611349565b60208201915061163682846115c3565b602082019150819050979650505050505050565b60006116568284611360565b915081905092915050565b60006040820190506116766000830185611305565b6116836020830184611305565b9392505050565b6000610120820190506116a0600083018c611305565b6116ad602083018b611305565b6116ba604083018a611305565b6116c760608301896115b4565b6116d4608083018861133a565b6116e160a08301876115b4565b6116ee60c083018661132b565b6116fb60e083018561132b565b61170961010083018461133a565b9a9950505050505050505050565b600060608201905061172c6000830186611305565b6117396020830185611305565b61174660408301846115b4565b949350505050565b60006040820190506117636000830185611305565b61177060208301846115b4565b9392505050565b600060608201905061178c6000830186611305565b61179960208301856115b4565b6117a660408301846115b4565b949350505050565b60006020820190506117c3600083018461132b565b92915050565b60006020820190506117de600083018461133a565b92915050565b600060208201905081810360008301526117fe8184611391565b905092915050565b6000602082019050818103600083015261181f816113ca565b9050919050565b6000602082019050818103600083015261183f816113ed565b9050919050565b6000602082019050818103600083015261185f81611410565b9050919050565b6000602082019050818103600083015261187f81611433565b9050919050565b6000602082019050818103600083015261189f81611456565b9050919050565b600060208201905081810360008301526118bf81611479565b9050919050565b600060208201905081810360008301526118df8161149c565b9050919050565b600060208201905081810360008301526118ff816114bf565b9050919050565b6000602082019050818103600083015261191f816114e2565b9050919050565b6000602082019050818103600083015261193f81611505565b9050919050565b6000602082019050818103600083015261195f81611528565b9050919050565b6000602082019050818103600083015261197f8161154b565b9050919050565b6000602082019050818103600083015261199f8161156e565b9050919050565b600060208201905081810360008301526119bf81611591565b9050919050565b60006119d06119e1565b90506119dc8282611ae2565b919050565b6000604051905090565b600067ffffffffffffffff821115611a0657611a05611b4b565b5b611a0f82611b7a565b9050602081019050919050565b600081519050919050565b600081519050919050565b600081905092915050565b600082825260208201905092915050565b6000611a5982611a76565b9050919050565b60008115159050919050565b6000819050919050565b600073ffffffffffffffffffffffffffffffffffffffff82169050919050565b6000819050919050565b82818337600083830152505050565b60005b83811015611acd578082015181840152602081019050611ab2565b83811115611adc576000848401525b50505050565b611aeb82611b7a565b810181811067ffffffffffffffff82111715611b0a57611b09611b4b565b5b80604052505050565b6000611b1e82611b2f565b9050919050565b6000819050919050565b6000611b3a82611b8b565b9050919050565b6000819050919050565b7f4e487b7100000000000000000000000000000000000000000000000000000000600052604160045260246000fd5b6000601f19601f8301169050919050565b60008160601b9050919050565b7f74696d656c6f636b2074696d65206d75737420626520696e207468652066757460008201527f7572650000000000000000000000000000000000000000000000000000000000602082015250565b7f776974686472617761626c653a206e6f74207265636569766572000000000000600082015250565b7f636f6e7472616374496420646f6573206e6f7420657869737400000000000000600082015250565b7f726566756e6461626c653a20616c72656164792077697468647261776e000000600082015250565b7f436f6e747261637420616c726561647920657869737473000000000000000000600082015250565b7f726566756e6461626c653a2074696d656c6f636b206e6f74207965742070617360008201527f7365640000000000000000000000000000000000000000000000000000000000602082015250565b7f7472616e7366657246726f6d2073656e6465722066616c6c6f00000000000000600082015250565b7f726566756e6461626c653a20616c726561647920726566756e64656400000000600082015250565b7f746f6b656e20616c6c6f77616e6365206d757374206265203e3d20616d6f756e60008201527f7400000000000000000000000000000000000000000000000000000000000000602082015250565b7f776974686472617761626c653a20616c72656164792077697468647261776e00600082015250565b7f776974686472617761626c653a20616c726561647920726566756e6465640000600082015250565b7f726566756e6461626c653a206e6f742073656e64657200000000000000000000600082015250565b7f746f6b656e20616d6f756e74206d757374206265203e20300000000000000000600082015250565b7f686173686c6f636b206861736820646f6573206e6f74206d6174636800000000600082015250565b611e5181611a4e565b8114611e5c57600080fd5b50565b611e6881611a60565b8114611e7357600080fd5b50565b611e7f81611a6c565b8114611e8a57600080fd5b50565b611e9681611a96565b8114611ea157600080fd5b5056fea2646970667358221220c732321dfc88190d6568762b792936cc781bcf578bdda8de74f7ac8ac699a92d64736f6c63430008040033",
  "immutableReferences": {},
  "source": "// SPDX-License-Identifier: MIT\npragma solidity >=0.4.22 <0.9.0;\nimport \"@openzeppelin/contracts/token/ERC20/ERC20.sol\";\n\n\n/**\n* @title Hashed Timelock Contracts (HTLCs) on Ethereum ERC20 tokens.\n*\n* This contract provides a way to create and keep HTLCs for ERC20 tokens.\n*\n* See HashedTimelock.sol for a contract that provides the same functions\n* for the native ETH token.\n*\n* Protocol:\n*\n*  1) newContract(receiver, hashlock, timelock, tokenContract, amount) - a\n*      sender calls this to create a new HTLC on a given token (tokenContract)\n*       for a given amount. A 32 byte contract id is returned\n*  2) withdraw(contractId, preimage) - once the receiver knows the preimage of\n*      the hashlock hash they can claim the tokens with this function\n*  3) refund() - after timelock has expired and if the receiver did not\n*      withdraw the tokens the sender / creator of the HTLC can get their tokens\n*      back with this function.\n */\ncontract HashTime {\n    event HTLCERC20New(\n        bytes32 indexed contractId,\n        address indexed sender,\n        address indexed receiver,\n        address tokenContract,\n        uint256 amount,\n        uint256 timelock\n    );\n    event HTLCERC20Withdraw(bytes32 indexed contractId);\n    event HTLCERC20Refund(bytes32 indexed contractId);\n\n    struct LockContract {\n        address sender;\n        address receiver;\n        address tokenContract;\n        uint256 amount;\n        bytes32 hashlock;\n        // locked UNTIL this time. Unit depends on consensus algorithm.\n        // PoA, PoA and IBFT all use seconds. But Quorum Raft uses nano-seconds\n        uint256 timelock;\n        bool withdrawn;\n        bool refunded;\n        bytes32 preimage;\n    }\n\n    modifier tokensTransferable(address _token, address _sender, uint256 _amount) {\n        require(_amount > 0, \"token amount must be > 0\");\n        require(\n            ERC20(_token).allowance(_sender, address(this)) >= _amount,\n            \"token allowance must be >= amount\"\n        );\n        _;\n    }\n    modifier futureTimelock(uint256 _time) {\n        // only requirement is the timelock time is after the last blocktime (now).\n        // probably want something a bit further in the future then this.\n        // but this is still a useful sanity check:\n        require(_time > block.timestamp, \"timelock time must be in the future\");\n        _;\n    }\n    modifier contractExists(bytes32 _contractId) {\n        require(haveContract(_contractId), \"contractId does not exist\");\n        _;\n    }\n    modifier hashlockMatches(bytes32 _contractId, string memory _x) {\n        require(\n            contracts[_contractId].hashlock == calcular(_x),\n            \"hashlock hash does not match\"\n        );\n        _;\n    }\n    modifier withdrawable(bytes32 _contractId) {\n        require(contracts[_contractId].receiver == msg.sender, \"withdrawable: not receiver\");\n        require(contracts[_contractId].withdrawn == false, \"withdrawable: already withdrawn\");\n        // This check needs to be added if claims are allowed after timeout. That is, if the following timelock check is commented out\n        require(contracts[_contractId].refunded == false, \"withdrawable: already refunded\");\n        // if we want to disallow claim to be made after the timeout, uncomment the following line\n        // require(contracts[_contractId].timelock > now, \"withdrawable: timelock time must be in the future\");\n        _;\n    }\n    modifier refundable(bytes32 _contractId) {\n        require(contracts[_contractId].sender == msg.sender, \"refundable: not sender\");\n        require(contracts[_contractId].refunded == false, \"refundable: already refunded\");\n        require(contracts[_contractId].withdrawn == false, \"refundable: already withdrawn\");\n        require(contracts[_contractId].timelock <= block.timestamp, \"refundable: timelock not yet passed\");\n        _;\n    }\n\n    mapping (bytes32 => LockContract) contracts;\n\n    /**\n     * @dev Sender / Payer sets up a new hash time lock contract depositing the\n     * funds and providing the reciever and terms.\n     *\n     * NOTE: _receiver must first call approve() on the token contract.\n     *       See allowance check in tokensTransferable modifier.\n\n     * @param _receiver Receiver of the tokens.\n     * @param _hashlock A sha-2 sha256 hash hashlock.\n     * @param _timelock UNIX epoch seconds time that the lock expires at.\n     *                  Refunds can be made after this time.\n     * @param _tokenContract ERC20 Token contract address.\n     * @param _amount Amount of the token to lock up.\n     * @return contractId Id of the new HTLC. This is needed for subsequent\n     *                    calls.\n     */\n    function newContract(\n        address _receiver,\n        bytes32 _hashlock,\n        uint256 _timelock,\n        address _tokenContract,\n        uint256 _amount\n    )\n        external\n        tokensTransferable(_tokenContract, msg.sender, _amount)\n        futureTimelock(_timelock)\n        returns (bytes32 contractId)\n    {\n        contractId = sha256(\n            abi.encodePacked(\n                msg.sender,\n                _receiver,\n                _tokenContract,\n                _amount,\n                _hashlock,\n                _timelock\n            )\n        );\n\n        // Reject if a contract already exists with the same parameters. The\n        // sender must change one of these parameters (ideally providing a\n        // different _hashlock).\n        if (haveContract(contractId))\n            revert(\"Contract already exists\");\n\n        // This contract becomes the temporary owner of the tokens\n        if (!ERC20(_tokenContract).transferFrom(msg.sender, address(this), _amount))\n            revert(\"transferFrom sender fallo\");\n\n        contracts[contractId] = LockContract(\n            msg.sender,\n            _receiver,\n            _tokenContract,\n            _amount,\n            _hashlock,\n            _timelock,\n            false,\n            false,\n            0x0\n        );\n\n        emit HTLCERC20New(\n            contractId,\n            msg.sender,\n            _receiver,\n            _tokenContract,\n            _amount,\n            _timelock\n        );\n    }\n\n    /**\n    * @dev Called by the receiver once they know the preimage of the hashlock.\n    * This will transfer ownership of the locked tokens to their address.\n    *\n    * @param _contractId Id of the HTLC.\n    * @param _preimage sha256(_preimage) should equal the contract hashlock.\n    * @return bool true on success\n     */\n    function withdraw(bytes32 _contractId, bytes32 _preimage,string memory _firma)\n        external\n        contractExists(_contractId)\n        hashlockMatches(_contractId, _firma)\n        withdrawable(_contractId)\n        returns (bool)\n    {\n        LockContract storage c = contracts[_contractId];\n        c.preimage = _preimage;\n        c.withdrawn = true;\n        ERC20(c.tokenContract).transfer(c.receiver, c.amount);\n        emit HTLCERC20Withdraw(_contractId);\n        return true;\n    }\n\n    /**\n     * @dev Called by the sender if there was no withdraw AND the time lock has\n     * expired. This will restore ownership of the tokens to the sender.\n     *\n     * @param _contractId Id of HTLC to refund from.\n     * @return bool true on success\n     */\n    function refund(bytes32 _contractId)\n        external\n        contractExists(_contractId)\n        refundable(_contractId)\n        returns (bool)\n    {\n        LockContract storage c = contracts[_contractId];\n        c.refunded = true;\n        ERC20(c.tokenContract).transfer(c.sender, c.amount);\n        emit HTLCERC20Refund(_contractId);\n        return true;\n    }\n\n    /*\n     * @dev Get contract details.\n     * @param _contractId HTLC contract id\n     * @return All parameters in struct LockContract for _contractId HTLC\n     */\n    function getContract(bytes32 _contractId)\n        public\n        view\n        returns (\n            address sender,\n            address receiver,\n            address tokenContract,\n            uint256 amount,\n            bytes32 hashlock,\n            uint256 timelock,\n            bool withdrawn,\n            bool refunded,\n            bytes32 preimage\n        )\n    {\n        if (haveContract(_contractId) == false)\n             return (address(0), address(0), address(0), 0, 0, 0, false, false, 0);\n        LockContract storage c = contracts[_contractId];\n        return (\n            c.sender,\n            c.receiver,\n            c.tokenContract,\n            c.amount,\n            c.hashlock,\n            c.timelock,\n            c.withdrawn,\n            c.refunded,\n            c.preimage\n        );\n    }\n\n    /**\n     * @dev Is there a contract with id _contractId.\n     * @param _contractId Id into contracts mapping.\n     */\n    function haveContract(bytes32 _contractId)\n        internal\n        view\n        returns (bool exists)\n    {\n        exists = (contracts[_contractId].sender != address(0));\n    }\n\n    function calcular(string memory _input)\n        public\n        pure\n        returns (bytes32)\n    {\n        return sha256(abi.encode((_input)));\n    }\n\n\n    function checkHash(bytes32 _contractId, string memory _x)external view{\n        require(\n            contracts[_contractId].hashlock == calcular(_x),\n            \"hashlock hash does not match\"\n            );\n        \n    }\n\n}",
  "sourcePath": "/Users/aarontolentino/Desktop/Templus_proyect/Templus_2.0/contracts/HashTime.sol",
  "compiler": {
    "name": "solc",
    "version": "0.8.4+commit.c7e474f2.Emscripten.clang"
  },
  "schemaVersion": "3.4.1",
  "updatedAt": "2022-01-17T13:55:53.962Z",
  "networkType": "ethereum",
  "devdoc": {
    "kind": "dev",
    "methods": {
      "newContract(address,bytes32,uint256,address,uint256)": {
        "details": "Sender / Payer sets up a new hash time lock contract depositing the funds and providing the reciever and terms. NOTE: _receiver must first call approve() on the token contract.       See allowance check in tokensTransferable modifier.",
        "params": {
          "_amount": "Amount of the token to lock up.",
          "_hashlock": "A sha-2 sha256 hash hashlock.",
          "_receiver": "Receiver of the tokens.",
          "_timelock": "UNIX epoch seconds time that the lock expires at.                  Refunds can be made after this time.",
          "_tokenContract": "ERC20 Token contract address."
        },
        "returns": {
          "contractId": "Id of the new HTLC. This is needed for subsequent                    calls."
        }
      },
      "refund(bytes32)": {
        "details": "Called by the sender if there was no withdraw AND the time lock has expired. This will restore ownership of the tokens to the sender.",
        "params": {
          "_contractId": "Id of HTLC to refund from."
        },
        "returns": {
          "_0": "bool true on success"
        }
      },
      "withdraw(bytes32,bytes32,string)": {
        "details": "Called by the receiver once they know the preimage of the hashlock. This will transfer ownership of the locked tokens to their address.",
        "params": {
          "_contractId": "Id of the HTLC.",
          "_preimage": "sha256(_preimage) should equal the contract hashlock."
        },
        "returns": {
          "_0": "bool true on success"
        }
      }
    },
    "title": "Hashed Timelock Contracts (HTLCs) on Ethereum ERC20 tokens. This contract provides a way to create and keep HTLCs for ERC20 tokens. See HashedTimelock.sol for a contract that provides the same functions for the native ETH token. Protocol:  1) newContract(receiver, hashlock, timelock, tokenContract, amount) - a      sender calls this to create a new HTLC on a given token (tokenContract)       for a given amount. A 32 byte contract id is returned  2) withdraw(contractId, preimage) - once the receiver knows the preimage of      the hashlock hash they can claim the tokens with this function  3) refund() - after timelock has expired and if the receiver did not      withdraw the tokens the sender / creator of the HTLC can get their tokens      back with this function.",
    "version": 1
  },
  "userdoc": {
    "kind": "user",
    "methods": {},
    "version": 1
  }
}