{
  "contractName": "Templus",
  "abi": [
    {
      "inputs": [
        {
          "internalType": "uint256",
          "name": "initialSupply",
          "type": "uint256"
        }
      ],
      "stateMutability": "nonpayable",
      "type": "constructor"
    },
    {
      "anonymous": false,
      "inputs": [
        {
          "indexed": true,
          "internalType": "address",
          "name": "owner",
          "type": "address"
        },
        {
          "indexed": true,
          "internalType": "address",
          "name": "spender",
          "type": "address"
        },
        {
          "indexed": false,
          "internalType": "uint256",
          "name": "value",
          "type": "uint256"
        }
      ],
      "name": "Approval",
      "type": "event"
    },
    {
      "anonymous": false,
      "inputs": [
        {
          "indexed": false,
          "internalType": "bytes",
          "name": "",
          "type": "bytes"
        }
      ],
      "name": "Datos",
      "type": "event"
    },
    {
      "anonymous": false,
      "inputs": [
        {
          "indexed": false,
          "internalType": "bool",
          "name": "",
          "type": "bool"
        }
      ],
      "name": "ElEvento",
      "type": "event"
    },
    {
      "anonymous": false,
      "inputs": [
        {
          "indexed": true,
          "internalType": "address",
          "name": "from",
          "type": "address"
        },
        {
          "indexed": true,
          "internalType": "address",
          "name": "to",
          "type": "address"
        },
        {
          "indexed": false,
          "internalType": "uint256",
          "name": "value",
          "type": "uint256"
        }
      ],
      "name": "Transfer",
      "type": "event"
    },
    {
      "inputs": [
        {
          "internalType": "address",
          "name": "owner",
          "type": "address"
        },
        {
          "internalType": "address",
          "name": "spender",
          "type": "address"
        }
      ],
      "name": "allowance",
      "outputs": [
        {
          "internalType": "uint256",
          "name": "",
          "type": "uint256"
        }
      ],
      "stateMutability": "view",
      "type": "function",
      "constant": true
    },
    {
      "inputs": [
        {
          "internalType": "address",
          "name": "spender",
          "type": "address"
        },
        {
          "internalType": "uint256",
          "name": "amount",
          "type": "uint256"
        }
      ],
      "name": "approve",
      "outputs": [
        {
          "internalType": "bool",
          "name": "",
          "type": "bool"
        }
      ],
      "stateMutability": "nonpayable",
      "type": "function"
    },
    {
      "inputs": [
        {
          "internalType": "address",
          "name": "account",
          "type": "address"
        }
      ],
      "name": "balanceOf",
      "outputs": [
        {
          "internalType": "uint256",
          "name": "",
          "type": "uint256"
        }
      ],
      "stateMutability": "view",
      "type": "function",
      "constant": true
    },
    {
      "inputs": [],
      "name": "decimals",
      "outputs": [
        {
          "internalType": "uint8",
          "name": "",
          "type": "uint8"
        }
      ],
      "stateMutability": "view",
      "type": "function",
      "constant": true
    },
    {
      "inputs": [
        {
          "internalType": "address",
          "name": "spender",
          "type": "address"
        },
        {
          "internalType": "uint256",
          "name": "subtractedValue",
          "type": "uint256"
        }
      ],
      "name": "decreaseAllowance",
      "outputs": [
        {
          "internalType": "bool",
          "name": "",
          "type": "bool"
        }
      ],
      "stateMutability": "nonpayable",
      "type": "function"
    },
    {
      "inputs": [
        {
          "internalType": "address",
          "name": "spender",
          "type": "address"
        },
        {
          "internalType": "uint256",
          "name": "addedValue",
          "type": "uint256"
        }
      ],
      "name": "increaseAllowance",
      "outputs": [
        {
          "internalType": "bool",
          "name": "",
          "type": "bool"
        }
      ],
      "stateMutability": "nonpayable",
      "type": "function"
    },
    {
      "inputs": [],
      "name": "name",
      "outputs": [
        {
          "internalType": "string",
          "name": "",
          "type": "string"
        }
      ],
      "stateMutability": "view",
      "type": "function",
      "constant": true
    },
    {
      "inputs": [],
      "name": "symbol",
      "outputs": [
        {
          "internalType": "string",
          "name": "",
          "type": "string"
        }
      ],
      "stateMutability": "view",
      "type": "function",
      "constant": true
    },
    {
      "inputs": [],
      "name": "totalSupply",
      "outputs": [
        {
          "internalType": "uint256",
          "name": "",
          "type": "uint256"
        }
      ],
      "stateMutability": "view",
      "type": "function",
      "constant": true
    },
    {
      "inputs": [
        {
          "internalType": "address",
          "name": "recipient",
          "type": "address"
        },
        {
          "internalType": "uint256",
          "name": "amount",
          "type": "uint256"
        }
      ],
      "name": "transfer",
      "outputs": [
        {
          "internalType": "bool",
          "name": "",
          "type": "bool"
        }
      ],
      "stateMutability": "nonpayable",
      "type": "function"
    },
    {
      "inputs": [
        {
          "internalType": "address",
          "name": "sender",
          "type": "address"
        },
        {
          "internalType": "address",
          "name": "recipient",
          "type": "address"
        },
        {
          "internalType": "uint256",
          "name": "amount",
          "type": "uint256"
        }
      ],
      "name": "transferFrom",
      "outputs": [
        {
          "internalType": "bool",
          "name": "",
          "type": "bool"
        }
      ],
      "stateMutability": "nonpayable",
      "type": "function"
    },
    {
      "inputs": [
        {
          "internalType": "address payable",
          "name": "_to",
          "type": "address"
        }
      ],
      "name": "ejemploCall",
      "outputs": [],
      "stateMutability": "payable",
      "type": "function",
      "payable": true
    },
    {
      "inputs": [],
      "name": "pagaEth",
      "outputs": [],
      "stateMutability": "payable",
      "type": "function",
      "payable": true
    },
    {
      "inputs": [],
      "name": "recive",
      "outputs": [],
      "stateMutability": "payable",
      "type": "function",
      "payable": true
    },
    {
      "inputs": [
        {
          "internalType": "address payable",
          "name": "_to",
          "type": "address"
        }
      ],
      "name": "enviar",
      "outputs": [],
      "stateMutability": "payable",
      "type": "function",
      "payable": true
    },
    {
      "inputs": [],
      "name": "contractBalance",
      "outputs": [
        {
          "internalType": "uint256",
          "name": "",
          "type": "uint256"
        }
      ],
      "stateMutability": "view",
      "type": "function",
      "constant": true
    }
  ],
  "bytecode": "0x608060405260006005553480156200001657600080fd5b5060405162001e6838038062001e6883398181016040528101906200003c919062000354565b6040518060400160405280600781526020017f54656d706c7573000000000000000000000000000000000000000000000000008152506040518060400160405280600581526020017f54454d50550000000000000000000000000000000000000000000000000000008152508160039080519060200190620000c09291906200028d565b508060049080519060200190620000d99291906200028d565b5050506200010333670de0b6b3a764000083620000f7919062000465565b6200010a60201b60201c565b50620005a7565b600073ffffffffffffffffffffffffffffffffffffffff168273ffffffffffffffffffffffffffffffffffffffff1614156200017d576040517f08c379a00000000000000000000000000000000000000000000000000000000081526004016200017490620003b8565b60405180910390fd5b62000191600083836200028360201b60201c565b8060026000828254620001a5919062000408565b92505081905550806000808473ffffffffffffffffffffffffffffffffffffffff1673ffffffffffffffffffffffffffffffffffffffff1681526020019081526020016000206000828254620001fc919062000408565b925050819055508173ffffffffffffffffffffffffffffffffffffffff16600073ffffffffffffffffffffffffffffffffffffffff167fddf252ad1be2c89b69c2b068fc378daa952ba7f163c4a11628f55a4df523b3ef83604051620002639190620003da565b60405180910390a36200027f600083836200028860201b60201c565b5050565b505050565b505050565b8280546200029b90620004d0565b90600052602060002090601f016020900481019282620002bf57600085556200030b565b82601f10620002da57805160ff19168380011785556200030b565b828001600101855582156200030b579182015b828111156200030a578251825591602001919060010190620002ed565b5b5090506200031a91906200031e565b5090565b5b80821115620003395760008160009055506001016200031f565b5090565b6000815190506200034e816200058d565b92915050565b6000602082840312156200036757600080fd5b600062000377848285016200033d565b91505092915050565b60006200038f601f83620003f7565b91506200039c8262000564565b602082019050919050565b620003b281620004c6565b82525050565b60006020820190508181036000830152620003d38162000380565b9050919050565b6000602082019050620003f16000830184620003a7565b92915050565b600082825260208201905092915050565b60006200041582620004c6565b91506200042283620004c6565b9250827fffffffffffffffffffffffffffffffffffffffffffffffffffffffffffffffff038211156200045a576200045962000506565b5b828201905092915050565b60006200047282620004c6565b91506200047f83620004c6565b9250817fffffffffffffffffffffffffffffffffffffffffffffffffffffffffffffffff0483118215151615620004bb57620004ba62000506565b5b828202905092915050565b6000819050919050565b60006002820490506001821680620004e957607f821691505b602082108114156200050057620004ff62000535565b5b50919050565b7f4e487b7100000000000000000000000000000000000000000000000000000000600052601160045260246000fd5b7f4e487b7100000000000000000000000000000000000000000000000000000000600052602260045260246000fd5b7f45524332303a206d696e7420746f20746865207a65726f206164647265737300600082015250565b6200059881620004c6565b8114620005a457600080fd5b50565b6118b180620005b76000396000f3fe6080604052600436106100f35760003560e01c806370a082311161008a578063a457c2d711610059578063a457c2d7146102f3578063a9059cbb14610330578063dd62ed3e1461036d578063fdd91af0146103aa576100f3565b806370a08231146102445780638b7afe2e1461028157806395d89b41146102ac578063a3535fec146102d7576100f3565b8063313ce567116100c6578063313ce567146101c857806335897cad146101f357806339509351146101fd5780635c75ecb81461023a576100f3565b806306fdde03146100f8578063095ea7b31461012357806318160ddd1461016057806323b872dd1461018b575b600080fd5b34801561010457600080fd5b5061010d6103c6565b60405161011a91906112b5565b60405180910390f35b34801561012f57600080fd5b5061014a6004803603810190610145919061104d565b610458565b6040516101579190611278565b60405180910390f35b34801561016c57600080fd5b50610175610476565b60405161018291906113d7565b60405180910390f35b34801561019757600080fd5b506101b260048036038101906101ad9190610ffe565b610480565b6040516101bf9190611278565b60405180910390f35b3480156101d457600080fd5b506101dd610578565b6040516101ea91906113f2565b60405180910390f35b6101fb610581565b005b34801561020957600080fd5b50610224600480360381019061021f919061104d565b610583565b6040516102319190611278565b60405180910390f35b61024261062f565b005b34801561025057600080fd5b5061026b60048036038101906102669190610f70565b61068a565b60405161027891906113d7565b60405180910390f35b34801561028d57600080fd5b506102966106d2565b6040516102a391906113d7565b60405180910390f35b3480156102b857600080fd5b506102c16106da565b6040516102ce91906112b5565b60405180910390f35b6102f160048036038101906102ec9190610f99565b61076c565b005b3480156102ff57600080fd5b5061031a6004803603810190610315919061104d565b610859565b6040516103279190611278565b60405180910390f35b34801561033c57600080fd5b506103576004803603810190610352919061104d565b610944565b6040516103649190611278565b60405180910390f35b34801561037957600080fd5b50610394600480360381019061038f9190610fc2565b610962565b6040516103a191906113d7565b60405180910390f35b6103c460048036038101906103bf9190610f99565b6109e9565b005b6060600380546103d590611540565b80601f016020809104026020016040519081016040528092919081815260200182805461040190611540565b801561044e5780601f106104235761010080835404028352916020019161044e565b820191906000526020600020905b81548152906001019060200180831161043157829003601f168201915b5050505050905090565b600061046c610465610ad3565b8484610adb565b6001905092915050565b6000600254905090565b600061048d848484610ca6565b6000600160008673ffffffffffffffffffffffffffffffffffffffff1673ffffffffffffffffffffffffffffffffffffffff16815260200190815260200160002060006104d8610ad3565b73ffffffffffffffffffffffffffffffffffffffff1673ffffffffffffffffffffffffffffffffffffffff16815260200190815260200160002054905082811015610558576040517f08c379a000000000000000000000000000000000000000000000000000000000815260040161054f90611357565b60405180910390fd5b61056c85610564610ad3565b858403610adb565b60019150509392505050565b60006012905090565b565b6000610625610590610ad3565b84846001600061059e610ad3565b73ffffffffffffffffffffffffffffffffffffffff1673ffffffffffffffffffffffffffffffffffffffff16815260200190815260200160002060008873ffffffffffffffffffffffffffffffffffffffff1673ffffffffffffffffffffffffffffffffffffffff168152602001908152602001600020546106209190611450565b610adb565b6001905092915050565b670de0b6b3a764000034101561064457600080fd5b34600760003373ffffffffffffffffffffffffffffffffffffffff1673ffffffffffffffffffffffffffffffffffffffff16815260200190815260200160002081905550565b60008060008373ffffffffffffffffffffffffffffffffffffffff1673ffffffffffffffffffffffffffffffffffffffff168152602001908152602001600020549050919050565b600047905090565b6060600480546106e990611540565b80601f016020809104026020016040519081016040528092919081815260200182805461071590611540565b80156107625780601f1061073757610100808354040283529160200191610762565b820191906000526020600020905b81548152906001019060200180831161074557829003601f168201915b5050505050905090565b600047905060008273ffffffffffffffffffffffffffffffffffffffff168260405161079790611263565b60006040518083038185875af1925050503d80600081146107d4576040519150601f19603f3d011682016040523d82523d6000602084013e6107d9565b606091505b505090508061081d576040517f08c379a000000000000000000000000000000000000000000000000000000000815260040161081490611337565b60405180910390fd5b7fdeb40d6efb39b4116846a5d0f427d50b451c62279adbf7348acc93d02fcd17cc8160405161084c9190611278565b60405180910390a1505050565b60008060016000610868610ad3565b73ffffffffffffffffffffffffffffffffffffffff1673ffffffffffffffffffffffffffffffffffffffff16815260200190815260200160002060008573ffffffffffffffffffffffffffffffffffffffff1673ffffffffffffffffffffffffffffffffffffffff16815260200190815260200160002054905082811015610925576040517f08c379a000000000000000000000000000000000000000000000000000000000815260040161091c906113b7565b60405180910390fd5b610939610930610ad3565b85858403610adb565b600191505092915050565b6000610958610951610ad3565b8484610ca6565b6001905092915050565b6000600160008473ffffffffffffffffffffffffffffffffffffffff1673ffffffffffffffffffffffffffffffffffffffff16815260200190815260200160002060008373ffffffffffffffffffffffffffffffffffffffff1673ffffffffffffffffffffffffffffffffffffffff16815260200190815260200160002054905092915050565b6000808273ffffffffffffffffffffffffffffffffffffffff1634604051610a1090611263565b60006040518083038185875af1925050503d8060008114610a4d576040519150601f19603f3d011682016040523d82523d6000602084013e610a52565b606091505b509150915081610a97576040517f08c379a0000000000000000000000000000000000000000000000000000000008152600401610a8e90611337565b60405180910390fd5b7f59b9639042f7294f65bbcfc337f8300bf7f1553e56f5befffb6f959c165d35b381604051610ac69190611293565b60405180910390a1505050565b600033905090565b600073ffffffffffffffffffffffffffffffffffffffff168373ffffffffffffffffffffffffffffffffffffffff161415610b4b576040517f08c379a0000000000000000000000000000000000000000000000000000000008152600401610b4290611397565b60405180910390fd5b600073ffffffffffffffffffffffffffffffffffffffff168273ffffffffffffffffffffffffffffffffffffffff161415610bbb576040517f08c379a0000000000000000000000000000000000000000000000000000000008152600401610bb2906112f7565b60405180910390fd5b80600160008573ffffffffffffffffffffffffffffffffffffffff1673ffffffffffffffffffffffffffffffffffffffff16815260200190815260200160002060008473ffffffffffffffffffffffffffffffffffffffff1673ffffffffffffffffffffffffffffffffffffffff168152602001908152602001600020819055508173ffffffffffffffffffffffffffffffffffffffff168373ffffffffffffffffffffffffffffffffffffffff167f8c5be1e5ebec7d5bd14f71427d1e84f3dd0314c0f7b2291e5b200ac8c7c3b92583604051610c9991906113d7565b60405180910390a3505050565b600073ffffffffffffffffffffffffffffffffffffffff168373ffffffffffffffffffffffffffffffffffffffff161415610d16576040517f08c379a0000000000000000000000000000000000000000000000000000000008152600401610d0d90611377565b60405180910390fd5b600073ffffffffffffffffffffffffffffffffffffffff168273ffffffffffffffffffffffffffffffffffffffff161415610d86576040517f08c379a0000000000000000000000000000000000000000000000000000000008152600401610d7d906112d7565b60405180910390fd5b610d91838383610f27565b60008060008573ffffffffffffffffffffffffffffffffffffffff1673ffffffffffffffffffffffffffffffffffffffff16815260200190815260200160002054905081811015610e17576040517f08c379a0000000000000000000000000000000000000000000000000000000008152600401610e0e90611317565b60405180910390fd5b8181036000808673ffffffffffffffffffffffffffffffffffffffff1673ffffffffffffffffffffffffffffffffffffffff16815260200190815260200160002081905550816000808573ffffffffffffffffffffffffffffffffffffffff1673ffffffffffffffffffffffffffffffffffffffff1681526020019081526020016000206000828254610eaa9190611450565b925050819055508273ffffffffffffffffffffffffffffffffffffffff168473ffffffffffffffffffffffffffffffffffffffff167fddf252ad1be2c89b69c2b068fc378daa952ba7f163c4a11628f55a4df523b3ef84604051610f0e91906113d7565b60405180910390a3610f21848484610f2c565b50505050565b505050565b505050565b600081359050610f4081611836565b92915050565b600081359050610f558161184d565b92915050565b600081359050610f6a81611864565b92915050565b600060208284031215610f8257600080fd5b6000610f9084828501610f31565b91505092915050565b600060208284031215610fab57600080fd5b6000610fb984828501610f46565b91505092915050565b60008060408385031215610fd557600080fd5b6000610fe385828601610f31565b9250506020610ff485828601610f31565b9150509250929050565b60008060006060848603121561101357600080fd5b600061102186828701610f31565b935050602061103286828701610f31565b925050604061104386828701610f5b565b9150509250925092565b6000806040838503121561106057600080fd5b600061106e85828601610f31565b925050602061107f85828601610f5b565b9150509250929050565b611092816114ca565b82525050565b60006110a38261140d565b6110ad8185611423565b93506110bd81856020860161150d565b6110c6816115d0565b840191505092915050565b60006110dc82611418565b6110e6818561143f565b93506110f681856020860161150d565b6110ff816115d0565b840191505092915050565b600061111760238361143f565b9150611122826115e1565b604082019050919050565b600061113a60228361143f565b915061114582611630565b604082019050919050565b600061115d60268361143f565b91506111688261167f565b604082019050919050565b600061118060148361143f565b915061118b826116ce565b602082019050919050565b60006111a360288361143f565b91506111ae826116f7565b604082019050919050565b60006111c660258361143f565b91506111d182611746565b604082019050919050565b60006111e9600083611434565b91506111f482611795565b600082019050919050565b600061120c60248361143f565b915061121782611798565b604082019050919050565b600061122f60258361143f565b915061123a826117e7565b604082019050919050565b61124e816114f6565b82525050565b61125d81611500565b82525050565b600061126e826111dc565b9150819050919050565b600060208201905061128d6000830184611089565b92915050565b600060208201905081810360008301526112ad8184611098565b905092915050565b600060208201905081810360008301526112cf81846110d1565b905092915050565b600060208201905081810360008301526112f08161110a565b9050919050565b600060208201905081810360008301526113108161112d565b9050919050565b6000602082019050818103600083015261133081611150565b9050919050565b6000602082019050818103600083015261135081611173565b9050919050565b6000602082019050818103600083015261137081611196565b9050919050565b60006020820190508181036000830152611390816111b9565b9050919050565b600060208201905081810360008301526113b0816111ff565b9050919050565b600060208201905081810360008301526113d081611222565b9050919050565b60006020820190506113ec6000830184611245565b92915050565b60006020820190506114076000830184611254565b92915050565b600081519050919050565b600081519050919050565b600082825260208201905092915050565b600081905092915050565b600082825260208201905092915050565b600061145b826114f6565b9150611466836114f6565b9250827fffffffffffffffffffffffffffffffffffffffffffffffffffffffffffffffff0382111561149b5761149a611572565b5b828201905092915050565b60006114b1826114d6565b9050919050565b60006114c3826114d6565b9050919050565b60008115159050919050565b600073ffffffffffffffffffffffffffffffffffffffff82169050919050565b6000819050919050565b600060ff82169050919050565b60005b8381101561152b578082015181840152602081019050611510565b8381111561153a576000848401525b50505050565b6000600282049050600182168061155857607f821691505b6020821081141561156c5761156b6115a1565b5b50919050565b7f4e487b7100000000000000000000000000000000000000000000000000000000600052601160045260246000fd5b7f4e487b7100000000000000000000000000000000000000000000000000000000600052602260045260246000fd5b6000601f19601f8301169050919050565b7f45524332303a207472616e7366657220746f20746865207a65726f206164647260008201527f6573730000000000000000000000000000000000000000000000000000000000602082015250565b7f45524332303a20617070726f766520746f20746865207a65726f20616464726560008201527f7373000000000000000000000000000000000000000000000000000000000000602082015250565b7f45524332303a207472616e7366657220616d6f756e742065786365656473206260008201527f616c616e63650000000000000000000000000000000000000000000000000000602082015250565b7f4661696c656420746f2073656e64204574686572000000000000000000000000600082015250565b7f45524332303a207472616e7366657220616d6f756e742065786365656473206160008201527f6c6c6f77616e6365000000000000000000000000000000000000000000000000602082015250565b7f45524332303a207472616e736665722066726f6d20746865207a65726f20616460008201527f6472657373000000000000000000000000000000000000000000000000000000602082015250565b50565b7f45524332303a20617070726f76652066726f6d20746865207a65726f2061646460008201527f7265737300000000000000000000000000000000000000000000000000000000602082015250565b7f45524332303a2064656372656173656420616c6c6f77616e63652062656c6f7760008201527f207a65726f000000000000000000000000000000000000000000000000000000602082015250565b61183f816114a6565b811461184a57600080fd5b50565b611856816114b8565b811461186157600080fd5b50565b61186d816114f6565b811461187857600080fd5b5056fea2646970667358221220a5977937dccbf7494b23b2e01b4c55cded500c272112b55b64a24aaf7d3ef4cd64736f6c63430008040033",
  "immutableReferences": {},
  "source": "// SPDX-License-Identifier: MIT\npragma solidity >=0.4.22 <0.9.0;\nimport \"@openzeppelin/contracts/token/ERC20/ERC20.sol\";\n\ncontract Templus is ERC20 {\n    uint256 num=0;\n\n    mapping(address=>bool) owners;\n    mapping(address=>uint) balances;\n    \n    constructor(uint256 initialSupply) ERC20(\"Templus\", \"TEMPU\") {\n        _mint(msg.sender, initialSupply*10**18);\n    }\n\n   \n    event ElEvento(bool);\n    function ejemploCall(address payable _to)public payable{\n        //bool exito=_to.transfer(1 ether);\n        uint amount = address(this).balance;\n        (bool success, ) = _to.call{value: amount}(\"\");\n        require(success, \"Failed to send Ether\");\n\n        emit ElEvento(success);\n    }\n\n    function pagaEth()external payable{\n        if(msg.value<1 ether){\n            revert();\n        }\n        balances[msg.sender]=msg.value;\n        \n    }\n\n    function recive()external payable{}\n\n\n    event Datos(bytes);\n\n    function enviar(address payable _to)external payable{\n        //bool requisito=_to.transfer(msg.value);\n        //address payable aqui=;\n         (bool sent, bytes memory data) = _to.call{value: msg.value}(\"\");\n        require(sent, \"Failed to send Ether\");\n        emit Datos(data);\n    }\n\n    function contractBalance()public view returns(uint){\n        return address(this).balance;\n    }\n\n    \n}",
  "sourcePath": "/Users/aarontolentino/Desktop/Templus_proyect/Templus_2.0/contracts/Templus.sol",
  "compiler": {
    "name": "solc",
    "version": "0.8.4+commit.c7e474f2.Emscripten.clang"
  },
  "schemaVersion": "3.4.1",
  "updatedAt": "2022-01-17T13:55:53.950Z",
  "networkType": "ethereum",
  "devdoc": {
    "kind": "dev",
    "methods": {
      "allowance(address,address)": {
        "details": "See {IERC20-allowance}."
      },
      "approve(address,uint256)": {
        "details": "See {IERC20-approve}. Requirements: - `spender` cannot be the zero address."
      },
      "balanceOf(address)": {
        "details": "See {IERC20-balanceOf}."
      },
      "decimals()": {
        "details": "Returns the number of decimals used to get its user representation. For example, if `decimals` equals `2`, a balance of `505` tokens should be displayed to a user as `5,05` (`505 / 10 ** 2`). Tokens usually opt for a value of 18, imitating the relationship between Ether and Wei. This is the value {ERC20} uses, unless this function is overridden; NOTE: This information is only used for _display_ purposes: it in no way affects any of the arithmetic of the contract, including {IERC20-balanceOf} and {IERC20-transfer}."
      },
      "decreaseAllowance(address,uint256)": {
        "details": "Atomically decreases the allowance granted to `spender` by the caller. This is an alternative to {approve} that can be used as a mitigation for problems described in {IERC20-approve}. Emits an {Approval} event indicating the updated allowance. Requirements: - `spender` cannot be the zero address. - `spender` must have allowance for the caller of at least `subtractedValue`."
      },
      "increaseAllowance(address,uint256)": {
        "details": "Atomically increases the allowance granted to `spender` by the caller. This is an alternative to {approve} that can be used as a mitigation for problems described in {IERC20-approve}. Emits an {Approval} event indicating the updated allowance. Requirements: - `spender` cannot be the zero address."
      },
      "name()": {
        "details": "Returns the name of the token."
      },
      "symbol()": {
        "details": "Returns the symbol of the token, usually a shorter version of the name."
      },
      "totalSupply()": {
        "details": "See {IERC20-totalSupply}."
      },
      "transfer(address,uint256)": {
        "details": "See {IERC20-transfer}. Requirements: - `recipient` cannot be the zero address. - the caller must have a balance of at least `amount`."
      },
      "transferFrom(address,address,uint256)": {
        "details": "See {IERC20-transferFrom}. Emits an {Approval} event indicating the updated allowance. This is not required by the EIP. See the note at the beginning of {ERC20}. Requirements: - `sender` and `recipient` cannot be the zero address. - `sender` must have a balance of at least `amount`. - the caller must have allowance for ``sender``'s tokens of at least `amount`."
      }
    },
    "version": 1
  },
  "userdoc": {
    "kind": "user",
    "methods": {},
    "version": 1
  }
}